{
	"data": {
		"bytecode": {
			"linkReferences": {},
			"object": "60806040525f600260146101000a81548160ff02191690831515021790555060015f819055503360025f6101000a81548173ffffffffffffffffffffffffffffffffffffffff021916908373ffffffffffffffffffffffffffffffffffffffff160217905550611157806100725f395ff3fe608060405260043610610090575f3560e01c80638da5cb5b116100585780638da5cb5b1461012a578063c4bc5da514610154578063d0e30db01461016a578063ea3a149914610174578063f90f4560146101b057610090565b806312065fe0146100945780633ccfd60b146100be578063439766ce146100d45780635c975abb146100ea578063853828b614610114575b5f5ffd5b34801561009f575f5ffd5b506100a86101ba565b6040516100b59190610ad9565b60405180910390f35b3480156100c9575f5ffd5b506100d26101c1565b005b3480156100df575f5ffd5b506100e86102dd565b005b3480156100f5575f5ffd5b506100fe6103ed565b60405161010b9190610b0c565b60405180910390f35b34801561011f575f5ffd5b50610128610400565b005b348015610135575f5ffd5b5061013e6105ac565b60405161014b9190610b64565b60405180910390f35b34801561015f575f5ffd5b506101686105d1565b005b6101726106e0565b005b34801561017f575f5ffd5b5061019a60048036038101906101959190610bab565b610801565b6040516101a79190610ad9565b60405180910390f35b6101b8610816565b005b5f47905090565b6101c9610a6b565b5f60015f3373ffffffffffffffffffffffffffffffffffffffff1673ffffffffffffffffffffffffffffffffffffffff1681526020019081526020015f205490505f811161024c576040517f08c379a000000000000000000000000000000000000000000000000000000000815260040161024390610c30565b60405180910390fd5b5f60015f3373ffffffffffffffffffffffffffffffffffffffff1673ffffffffffffffffffffffffffffffffffffffff1681526020019081526020015f20819055503373ffffffffffffffffffffffffffffffffffffffff166108fc8290811502906040515f60405180830381858888f193505050501580156102d1573d5f5f3e3d5ffd5b50506102db610ab8565b565b60025f9054906101000a900473ffffffffffffffffffffffffffffffffffffffff1673ffffffffffffffffffffffffffffffffffffffff163373ffffffffffffffffffffffffffffffffffffffff161461036c576040517f08c379a000000000000000000000000000000000000000000000000000000000815260040161036390610c98565b60405180910390fd5b6001600260146101000a81548160ff02191690831515021790555060025f9054906101000a900473ffffffffffffffffffffffffffffffffffffffff1673ffffffffffffffffffffffffffffffffffffffff167f81990fd9a5c552b8e3677917d8a03c07678f0d2cb68f88b634aca2022e9bd19f60405160405180910390a2565b600260149054906101000a900460ff1681565b60025f9054906101000a900473ffffffffffffffffffffffffffffffffffffffff1673ffffffffffffffffffffffffffffffffffffffff163373ffffffffffffffffffffffffffffffffffffffff161461048f576040517f08c379a000000000000000000000000000000000000000000000000000000000815260040161048690610c98565b60405180910390fd5b5f4790505f81116104d5576040517f08c379a00000000000000000000000000000000000000000000000000000000081526004016104cc90610d00565b60405180910390fd5b60025f9054906101000a900473ffffffffffffffffffffffffffffffffffffffff1673ffffffffffffffffffffffffffffffffffffffff166108fc8290811502906040515f60405180830381858888f19350505050158015610539573d5f5f3e3d5ffd5b5060025f9054906101000a900473ffffffffffffffffffffffffffffffffffffffff1673ffffffffffffffffffffffffffffffffffffffff167fd7a4aa9f3dca5f6606ac15d7e1850920201bbb02c38cd986793779f58ae0dfd3826040516105a19190610ad9565b60405180910390a250565b60025f9054906101000a900473ffffffffffffffffffffffffffffffffffffffff1681565b60025f9054906101000a900473ffffffffffffffffffffffffffffffffffffffff1673ffffffffffffffffffffffffffffffffffffffff163373ffffffffffffffffffffffffffffffffffffffff1614610660576040517f08c379a000000000000000000000000000000000000000000000000000000000815260040161065790610c98565b60405180910390fd5b5f600260146101000a81548160ff02191690831515021790555060025f9054906101000a900473ffffffffffffffffffffffffffffffffffffffff1673ffffffffffffffffffffffffffffffffffffffff167f472e056847699a88a64a275bcc75c153a7f8bb3f37c8b1390d6abd2426d5c4ba60405160405180910390a2565b60025f9054906101000a900473ffffffffffffffffffffffffffffffffffffffff1673ffffffffffffffffffffffffffffffffffffffff163373ffffffffffffffffffffffffffffffffffffffff161461076f576040517f08c379a000000000000000000000000000000000000000000000000000000000815260040161076690610c98565b60405180910390fd5b5f34116107b1576040517f08c379a00000000000000000000000000000000000000000000000000000000081526004016107a890610d68565b60405180910390fd5b3373ffffffffffffffffffffffffffffffffffffffff167fe1fffcc4923d04b559f4d29a8bfc6cda04eb5b0d3c460751c2402c5c5cc9109c346040516107f79190610ad9565b60405180910390a2565b6001602052805f5260405f205f915090505481565b61081e610a6b565b600260149054906101000a900460ff161561086e576040517f08c379a000000000000000000000000000000000000000000000000000000000815260040161086590610dd0565b60405180910390fd5b5f34116108b0576040517f08c379a00000000000000000000000000000000000000000000000000000000081526004016108a790610e38565b60405180910390fd5b476002346108be9190610e83565b11156108ff576040517f08c379a00000000000000000000000000000000000000000000000000000000081526004016108f690610f0e565b60405180910390fd5b5f60016103e742443360405160200161091a93929190610f91565b604051602081830303815290604052805190602001205f1c61093c9190610ffa565b610946919061102a565b90505f6101f4821190505f5f905081156109bd576002346109679190610e83565b90508060015f3373ffffffffffffffffffffffffffffffffffffffff1673ffffffffffffffffffffffffffffffffffffffff1681526020019081526020015f205f8282546109b5919061102a565b925050819055505b3373ffffffffffffffffffffffffffffffffffffffff167e1ecf1d0c4d22f324b3ecb9cdf0e5f772bc74ac104e6626f4b3845433d031053485604051610a0492919061105d565b60405180910390a23373ffffffffffffffffffffffffffffffffffffffff167fe0b9351d06ca94c4f37dd426c8a5096df7dce4d586f237c31f0f009a813c02f7838386604051610a5693929190611084565b60405180910390a2505050610a69610ab8565b565b60025f5403610aaf576040517f08c379a0000000000000000000000000000000000000000000000000000000008152600401610aa690611103565b60405180910390fd5b60025f81905550565b60015f81905550565b5f819050919050565b610ad381610ac1565b82525050565b5f602082019050610aec5f830184610aca565b92915050565b5f8115159050919050565b610b0681610af2565b82525050565b5f602082019050610b1f5f830184610afd565b92915050565b5f73ffffffffffffffffffffffffffffffffffffffff82169050919050565b5f610b4e82610b25565b9050919050565b610b5e81610b44565b82525050565b5f602082019050610b775f830184610b55565b92915050565b5f5ffd5b610b8a81610b44565b8114610b94575f5ffd5b50565b5f81359050610ba581610b81565b92915050565b5f60208284031215610bc057610bbf610b7d565b5b5f610bcd84828501610b97565b91505092915050565b5f82825260208201905092915050565b7f4e6f2077696e6e696e677320746f2077697468647261770000000000000000005f82015250565b5f610c1a601783610bd6565b9150610c2582610be6565b602082019050919050565b5f6020820190508181035f830152610c4781610c0e565b9050919050565b7f4f6e6c79206f776e65722063616e2063616c6c207468697300000000000000005f82015250565b5f610c82601883610bd6565b9150610c8d82610c4e565b602082019050919050565b5f6020820190508181035f830152610caf81610c76565b9050919050565b7f4e6f2062616c616e636520746f207769746864726177000000000000000000005f82015250565b5f610cea601683610bd6565b9150610cf582610cb6565b602082019050919050565b5f6020820190508181035f830152610d1781610cde565b9050919050565b7f4d7573742073656e64204d4154494320746f206465706f7369740000000000005f82015250565b5f610d52601a83610bd6565b9150610d5d82610d1e565b602082019050919050565b5f6020820190508181035f830152610d7f81610d46565b9050919050565b7f436f6e74726163742069732070617573656400000000000000000000000000005f82015250565b5f610dba601283610bd6565b9150610dc582610d86565b602082019050919050565b5f6020820190508181035f830152610de781610dae565b9050919050565b7f4e65656420746f2073656e64204d4154494320746f20626574000000000000005f82015250565b5f610e22601983610bd6565b9150610e2d82610dee565b602082019050919050565b5f6020820190508181035f830152610e4f81610e16565b9050919050565b7f4e487b71000000000000000000000000000000000000000000000000000000005f52601160045260245ffd5b5f610e8d82610ac1565b9150610e9883610ac1565b9250828202610ea681610ac1565b91508282048414831517610ebd57610ebc610e56565b5b5092915050565b7f42657420746f6f206c6172676520666f72207072697a6520706f6f6c000000005f82015250565b5f610ef8601c83610bd6565b9150610f0382610ec4565b602082019050919050565b5f6020820190508181035f830152610f2581610eec565b9050919050565b5f819050919050565b610f46610f4182610ac1565b610f2c565b82525050565b5f8160601b9050919050565b5f610f6282610f4c565b9050919050565b5f610f7382610f58565b9050919050565b610f8b610f8682610b44565b610f69565b82525050565b5f610f9c8286610f35565b602082019150610fac8285610f35565b602082019150610fbc8284610f7a565b601482019150819050949350505050565b7f4e487b71000000000000000000000000000000000000000000000000000000005f52601260045260245ffd5b5f61100482610ac1565b915061100f83610ac1565b92508261101f5761101e610fcd565b5b828206905092915050565b5f61103482610ac1565b915061103f83610ac1565b925082820190508082111561105757611056610e56565b5b92915050565b5f6040820190506110705f830185610aca565b61107d6020830184610aca565b9392505050565b5f6060820190506110975f830186610afd565b6110a46020830185610aca565b6110b16040830184610aca565b949350505050565b7f5265656e7472616e637947756172643a207265656e7472616e742063616c6c005f82015250565b5f6110ed601f83610bd6565b91506110f8826110b9565b602082019050919050565b5f6020820190508181035f83015261111a816110e1565b905091905056fea26469706673582212208e5ac72e9942afa02739d91646fc5d344062ca9b8ffca82eaa54297e151b36be64736f6c634300081e0033",
			"opcodes": "PUSH1 0x80 PUSH1 0x40 MSTORE PUSH0 PUSH1 0x2 PUSH1 0x14 PUSH2 0x100 EXP DUP2 SLOAD DUP2 PUSH1 0xFF MUL NOT AND SWAP1 DUP4 ISZERO ISZERO MUL OR SWAP1 SSTORE POP PUSH1 0x1 PUSH0 DUP2 SWAP1 SSTORE POP CALLER PUSH1 0x2 PUSH0 PUSH2 0x100 EXP DUP2 SLOAD DUP2 PUSH20 0xFFFFFFFFFFFFFFFFFFFFFFFFFFFFFFFFFFFFFFFF MUL NOT AND SWAP1 DUP4 PUSH20 0xFFFFFFFFFFFFFFFFFFFFFFFFFFFFFFFFFFFFFFFF AND MUL OR SWAP1 SSTORE POP PUSH2 0x1157 DUP1 PUSH2 0x72 PUSH0 CODECOPY PUSH0 RETURN INVALID PUSH1 0x80 PUSH1 0x40 MSTORE PUSH1 0x4 CALLDATASIZE LT PUSH2 0x90 JUMPI PUSH0 CALLDATALOAD PUSH1 0xE0 SHR DUP1 PUSH4 0x8DA5CB5B GT PUSH2 0x58 JUMPI DUP1 PUSH4 0x8DA5CB5B EQ PUSH2 0x12A JUMPI DUP1 PUSH4 0xC4BC5DA5 EQ PUSH2 0x154 JUMPI DUP1 PUSH4 0xD0E30DB0 EQ PUSH2 0x16A JUMPI DUP1 PUSH4 0xEA3A1499 EQ PUSH2 0x174 JUMPI DUP1 PUSH4 0xF90F4560 EQ PUSH2 0x1B0 JUMPI PUSH2 0x90 JUMP JUMPDEST DUP1 PUSH4 0x12065FE0 EQ PUSH2 0x94 JUMPI DUP1 PUSH4 0x3CCFD60B EQ PUSH2 0xBE JUMPI DUP1 PUSH4 0x439766CE EQ PUSH2 0xD4 JUMPI DUP1 PUSH4 0x5C975ABB EQ PUSH2 0xEA JUMPI DUP1 PUSH4 0x853828B6 EQ PUSH2 0x114 JUMPI JUMPDEST PUSH0 PUSH0 REVERT JUMPDEST CALLVALUE DUP1 ISZERO PUSH2 0x9F JUMPI PUSH0 PUSH0 REVERT JUMPDEST POP PUSH2 0xA8 PUSH2 0x1BA JUMP JUMPDEST PUSH1 0x40 MLOAD PUSH2 0xB5 SWAP2 SWAP1 PUSH2 0xAD9 JUMP JUMPDEST PUSH1 0x40 MLOAD DUP1 SWAP2 SUB SWAP1 RETURN JUMPDEST CALLVALUE DUP1 ISZERO PUSH2 0xC9 JUMPI PUSH0 PUSH0 REVERT JUMPDEST POP PUSH2 0xD2 PUSH2 0x1C1 JUMP JUMPDEST STOP JUMPDEST CALLVALUE DUP1 ISZERO PUSH2 0xDF JUMPI PUSH0 PUSH0 REVERT JUMPDEST POP PUSH2 0xE8 PUSH2 0x2DD JUMP JUMPDEST STOP JUMPDEST CALLVALUE DUP1 ISZERO PUSH2 0xF5 JUMPI PUSH0 PUSH0 REVERT JUMPDEST POP PUSH2 0xFE PUSH2 0x3ED JUMP JUMPDEST PUSH1 0x40 MLOAD PUSH2 0x10B SWAP2 SWAP1 PUSH2 0xB0C JUMP JUMPDEST PUSH1 0x40 MLOAD DUP1 SWAP2 SUB SWAP1 RETURN JUMPDEST CALLVALUE DUP1 ISZERO PUSH2 0x11F JUMPI PUSH0 PUSH0 REVERT JUMPDEST POP PUSH2 0x128 PUSH2 0x400 JUMP JUMPDEST STOP JUMPDEST CALLVALUE DUP1 ISZERO PUSH2 0x135 JUMPI PUSH0 PUSH0 REVERT JUMPDEST POP PUSH2 0x13E PUSH2 0x5AC JUMP JUMPDEST PUSH1 0x40 MLOAD PUSH2 0x14B SWAP2 SWAP1 PUSH2 0xB64 JUMP JUMPDEST PUSH1 0x40 MLOAD DUP1 SWAP2 SUB SWAP1 RETURN JUMPDEST CALLVALUE DUP1 ISZERO PUSH2 0x15F JUMPI PUSH0 PUSH0 REVERT JUMPDEST POP PUSH2 0x168 PUSH2 0x5D1 JUMP JUMPDEST STOP JUMPDEST PUSH2 0x172 PUSH2 0x6E0 JUMP JUMPDEST STOP JUMPDEST CALLVALUE DUP1 ISZERO PUSH2 0x17F JUMPI PUSH0 PUSH0 REVERT JUMPDEST POP PUSH2 0x19A PUSH1 0x4 DUP1 CALLDATASIZE SUB DUP2 ADD SWAP1 PUSH2 0x195 SWAP2 SWAP1 PUSH2 0xBAB JUMP JUMPDEST PUSH2 0x801 JUMP JUMPDEST PUSH1 0x40 MLOAD PUSH2 0x1A7 SWAP2 SWAP1 PUSH2 0xAD9 JUMP JUMPDEST PUSH1 0x40 MLOAD DUP1 SWAP2 SUB SWAP1 RETURN JUMPDEST PUSH2 0x1B8 PUSH2 0x816 JUMP JUMPDEST STOP JUMPDEST PUSH0 SELFBALANCE SWAP1 POP SWAP1 JUMP JUMPDEST PUSH2 0x1C9 PUSH2 0xA6B JUMP JUMPDEST PUSH0 PUSH1 0x1 PUSH0 CALLER PUSH20 0xFFFFFFFFFFFFFFFFFFFFFFFFFFFFFFFFFFFFFFFF AND PUSH20 0xFFFFFFFFFFFFFFFFFFFFFFFFFFFFFFFFFFFFFFFF AND DUP2 MSTORE PUSH1 0x20 ADD SWAP1 DUP2 MSTORE PUSH1 0x20 ADD PUSH0 KECCAK256 SLOAD SWAP1 POP PUSH0 DUP2 GT PUSH2 0x24C JUMPI PUSH1 0x40 MLOAD PUSH32 0x8C379A000000000000000000000000000000000000000000000000000000000 DUP2 MSTORE PUSH1 0x4 ADD PUSH2 0x243 SWAP1 PUSH2 0xC30 JUMP JUMPDEST PUSH1 0x40 MLOAD DUP1 SWAP2 SUB SWAP1 REVERT JUMPDEST PUSH0 PUSH1 0x1 PUSH0 CALLER PUSH20 0xFFFFFFFFFFFFFFFFFFFFFFFFFFFFFFFFFFFFFFFF AND PUSH20 0xFFFFFFFFFFFFFFFFFFFFFFFFFFFFFFFFFFFFFFFF AND DUP2 MSTORE PUSH1 0x20 ADD SWAP1 DUP2 MSTORE PUSH1 0x20 ADD PUSH0 KECCAK256 DUP2 SWAP1 SSTORE POP CALLER PUSH20 0xFFFFFFFFFFFFFFFFFFFFFFFFFFFFFFFFFFFFFFFF AND PUSH2 0x8FC DUP3 SWAP1 DUP2 ISZERO MUL SWAP1 PUSH1 0x40 MLOAD PUSH0 PUSH1 0x40 MLOAD DUP1 DUP4 SUB DUP2 DUP6 DUP9 DUP9 CALL SWAP4 POP POP POP POP ISZERO DUP1 ISZERO PUSH2 0x2D1 JUMPI RETURNDATASIZE PUSH0 PUSH0 RETURNDATACOPY RETURNDATASIZE PUSH0 REVERT JUMPDEST POP POP PUSH2 0x2DB PUSH2 0xAB8 JUMP JUMPDEST JUMP JUMPDEST PUSH1 0x2 PUSH0 SWAP1 SLOAD SWAP1 PUSH2 0x100 EXP SWAP1 DIV PUSH20 0xFFFFFFFFFFFFFFFFFFFFFFFFFFFFFFFFFFFFFFFF AND PUSH20 0xFFFFFFFFFFFFFFFFFFFFFFFFFFFFFFFFFFFFFFFF AND CALLER PUSH20 0xFFFFFFFFFFFFFFFFFFFFFFFFFFFFFFFFFFFFFFFF AND EQ PUSH2 0x36C JUMPI PUSH1 0x40 MLOAD PUSH32 0x8C379A000000000000000000000000000000000000000000000000000000000 DUP2 MSTORE PUSH1 0x4 ADD PUSH2 0x363 SWAP1 PUSH2 0xC98 JUMP JUMPDEST PUSH1 0x40 MLOAD DUP1 SWAP2 SUB SWAP1 REVERT JUMPDEST PUSH1 0x1 PUSH1 0x2 PUSH1 0x14 PUSH2 0x100 EXP DUP2 SLOAD DUP2 PUSH1 0xFF MUL NOT AND SWAP1 DUP4 ISZERO ISZERO MUL OR SWAP1 SSTORE POP PUSH1 0x2 PUSH0 SWAP1 SLOAD SWAP1 PUSH2 0x100 EXP SWAP1 DIV PUSH20 0xFFFFFFFFFFFFFFFFFFFFFFFFFFFFFFFFFFFFFFFF AND PUSH20 0xFFFFFFFFFFFFFFFFFFFFFFFFFFFFFFFFFFFFFFFF AND PUSH32 0x81990FD9A5C552B8E3677917D8A03C07678F0D2CB68F88B634ACA2022E9BD19F PUSH1 0x40 MLOAD PUSH1 0x40 MLOAD DUP1 SWAP2 SUB SWAP1 LOG2 JUMP JUMPDEST PUSH1 0x2 PUSH1 0x14 SWAP1 SLOAD SWAP1 PUSH2 0x100 EXP SWAP1 DIV PUSH1 0xFF AND DUP2 JUMP JUMPDEST PUSH1 0x2 PUSH0 SWAP1 SLOAD SWAP1 PUSH2 0x100 EXP SWAP1 DIV PUSH20 0xFFFFFFFFFFFFFFFFFFFFFFFFFFFFFFFFFFFFFFFF AND PUSH20 0xFFFFFFFFFFFFFFFFFFFFFFFFFFFFFFFFFFFFFFFF AND CALLER PUSH20 0xFFFFFFFFFFFFFFFFFFFFFFFFFFFFFFFFFFFFFFFF AND EQ PUSH2 0x48F JUMPI PUSH1 0x40 MLOAD PUSH32 0x8C379A000000000000000000000000000000000000000000000000000000000 DUP2 MSTORE PUSH1 0x4 ADD PUSH2 0x486 SWAP1 PUSH2 0xC98 JUMP JUMPDEST PUSH1 0x40 MLOAD DUP1 SWAP2 SUB SWAP1 REVERT JUMPDEST PUSH0 SELFBALANCE SWAP1 POP PUSH0 DUP2 GT PUSH2 0x4D5 JUMPI PUSH1 0x40 MLOAD PUSH32 0x8C379A000000000000000000000000000000000000000000000000000000000 DUP2 MSTORE PUSH1 0x4 ADD PUSH2 0x4CC SWAP1 PUSH2 0xD00 JUMP JUMPDEST PUSH1 0x40 MLOAD DUP1 SWAP2 SUB SWAP1 REVERT JUMPDEST PUSH1 0x2 PUSH0 SWAP1 SLOAD SWAP1 PUSH2 0x100 EXP SWAP1 DIV PUSH20 0xFFFFFFFFFFFFFFFFFFFFFFFFFFFFFFFFFFFFFFFF AND PUSH20 0xFFFFFFFFFFFFFFFFFFFFFFFFFFFFFFFFFFFFFFFF AND PUSH2 0x8FC DUP3 SWAP1 DUP2 ISZERO MUL SWAP1 PUSH1 0x40 MLOAD PUSH0 PUSH1 0x40 MLOAD DUP1 DUP4 SUB DUP2 DUP6 DUP9 DUP9 CALL SWAP4 POP POP POP POP ISZERO DUP1 ISZERO PUSH2 0x539 JUMPI RETURNDATASIZE PUSH0 PUSH0 RETURNDATACOPY RETURNDATASIZE PUSH0 REVERT JUMPDEST POP PUSH1 0x2 PUSH0 SWAP1 SLOAD SWAP1 PUSH2 0x100 EXP SWAP1 DIV PUSH20 0xFFFFFFFFFFFFFFFFFFFFFFFFFFFFFFFFFFFFFFFF AND PUSH20 0xFFFFFFFFFFFFFFFFFFFFFFFFFFFFFFFFFFFFFFFF AND PUSH32 0xD7A4AA9F3DCA5F6606AC15D7E1850920201BBB02C38CD986793779F58AE0DFD3 DUP3 PUSH1 0x40 MLOAD PUSH2 0x5A1 SWAP2 SWAP1 PUSH2 0xAD9 JUMP JUMPDEST PUSH1 0x40 MLOAD DUP1 SWAP2 SUB SWAP1 LOG2 POP JUMP JUMPDEST PUSH1 0x2 PUSH0 SWAP1 SLOAD SWAP1 PUSH2 0x100 EXP SWAP1 DIV PUSH20 0xFFFFFFFFFFFFFFFFFFFFFFFFFFFFFFFFFFFFFFFF AND DUP2 JUMP JUMPDEST PUSH1 0x2 PUSH0 SWAP1 SLOAD SWAP1 PUSH2 0x100 EXP SWAP1 DIV PUSH20 0xFFFFFFFFFFFFFFFFFFFFFFFFFFFFFFFFFFFFFFFF AND PUSH20 0xFFFFFFFFFFFFFFFFFFFFFFFFFFFFFFFFFFFFFFFF AND CALLER PUSH20 0xFFFFFFFFFFFFFFFFFFFFFFFFFFFFFFFFFFFFFFFF AND EQ PUSH2 0x660 JUMPI PUSH1 0x40 MLOAD PUSH32 0x8C379A000000000000000000000000000000000000000000000000000000000 DUP2 MSTORE PUSH1 0x4 ADD PUSH2 0x657 SWAP1 PUSH2 0xC98 JUMP JUMPDEST PUSH1 0x40 MLOAD DUP1 SWAP2 SUB SWAP1 REVERT JUMPDEST PUSH0 PUSH1 0x2 PUSH1 0x14 PUSH2 0x100 EXP DUP2 SLOAD DUP2 PUSH1 0xFF MUL NOT AND SWAP1 DUP4 ISZERO ISZERO MUL OR SWAP1 SSTORE POP PUSH1 0x2 PUSH0 SWAP1 SLOAD SWAP1 PUSH2 0x100 EXP SWAP1 DIV PUSH20 0xFFFFFFFFFFFFFFFFFFFFFFFFFFFFFFFFFFFFFFFF AND PUSH20 0xFFFFFFFFFFFFFFFFFFFFFFFFFFFFFFFFFFFFFFFF AND PUSH32 0x472E056847699A88A64A275BCC75C153A7F8BB3F37C8B1390D6ABD2426D5C4BA PUSH1 0x40 MLOAD PUSH1 0x40 MLOAD DUP1 SWAP2 SUB SWAP1 LOG2 JUMP JUMPDEST PUSH1 0x2 PUSH0 SWAP1 SLOAD SWAP1 PUSH2 0x100 EXP SWAP1 DIV PUSH20 0xFFFFFFFFFFFFFFFFFFFFFFFFFFFFFFFFFFFFFFFF AND PUSH20 0xFFFFFFFFFFFFFFFFFFFFFFFFFFFFFFFFFFFFFFFF AND CALLER PUSH20 0xFFFFFFFFFFFFFFFFFFFFFFFFFFFFFFFFFFFFFFFF AND EQ PUSH2 0x76F JUMPI PUSH1 0x40 MLOAD PUSH32 0x8C379A000000000000000000000000000000000000000000000000000000000 DUP2 MSTORE PUSH1 0x4 ADD PUSH2 0x766 SWAP1 PUSH2 0xC98 JUMP JUMPDEST PUSH1 0x40 MLOAD DUP1 SWAP2 SUB SWAP1 REVERT JUMPDEST PUSH0 CALLVALUE GT PUSH2 0x7B1 JUMPI PUSH1 0x40 MLOAD PUSH32 0x8C379A000000000000000000000000000000000000000000000000000000000 DUP2 MSTORE PUSH1 0x4 ADD PUSH2 0x7A8 SWAP1 PUSH2 0xD68 JUMP JUMPDEST PUSH1 0x40 MLOAD DUP1 SWAP2 SUB SWAP1 REVERT JUMPDEST CALLER PUSH20 0xFFFFFFFFFFFFFFFFFFFFFFFFFFFFFFFFFFFFFFFF AND PUSH32 0xE1FFFCC4923D04B559F4D29A8BFC6CDA04EB5B0D3C460751C2402C5C5CC9109C CALLVALUE PUSH1 0x40 MLOAD PUSH2 0x7F7 SWAP2 SWAP1 PUSH2 0xAD9 JUMP JUMPDEST PUSH1 0x40 MLOAD DUP1 SWAP2 SUB SWAP1 LOG2 JUMP JUMPDEST PUSH1 0x1 PUSH1 0x20 MSTORE DUP1 PUSH0 MSTORE PUSH1 0x40 PUSH0 KECCAK256 PUSH0 SWAP2 POP SWAP1 POP SLOAD DUP2 JUMP JUMPDEST PUSH2 0x81E PUSH2 0xA6B JUMP JUMPDEST PUSH1 0x2 PUSH1 0x14 SWAP1 SLOAD SWAP1 PUSH2 0x100 EXP SWAP1 DIV PUSH1 0xFF AND ISZERO PUSH2 0x86E JUMPI PUSH1 0x40 MLOAD PUSH32 0x8C379A000000000000000000000000000000000000000000000000000000000 DUP2 MSTORE PUSH1 0x4 ADD PUSH2 0x865 SWAP1 PUSH2 0xDD0 JUMP JUMPDEST PUSH1 0x40 MLOAD DUP1 SWAP2 SUB SWAP1 REVERT JUMPDEST PUSH0 CALLVALUE GT PUSH2 0x8B0 JUMPI PUSH1 0x40 MLOAD PUSH32 0x8C379A000000000000000000000000000000000000000000000000000000000 DUP2 MSTORE PUSH1 0x4 ADD PUSH2 0x8A7 SWAP1 PUSH2 0xE38 JUMP JUMPDEST PUSH1 0x40 MLOAD DUP1 SWAP2 SUB SWAP1 REVERT JUMPDEST SELFBALANCE PUSH1 0x2 CALLVALUE PUSH2 0x8BE SWAP2 SWAP1 PUSH2 0xE83 JUMP JUMPDEST GT ISZERO PUSH2 0x8FF JUMPI PUSH1 0x40 MLOAD PUSH32 0x8C379A000000000000000000000000000000000000000000000000000000000 DUP2 MSTORE PUSH1 0x4 ADD PUSH2 0x8F6 SWAP1 PUSH2 0xF0E JUMP JUMPDEST PUSH1 0x40 MLOAD DUP1 SWAP2 SUB SWAP1 REVERT JUMPDEST PUSH0 PUSH1 0x1 PUSH2 0x3E7 TIMESTAMP PREVRANDAO CALLER PUSH1 0x40 MLOAD PUSH1 0x20 ADD PUSH2 0x91A SWAP4 SWAP3 SWAP2 SWAP1 PUSH2 0xF91 JUMP JUMPDEST PUSH1 0x40 MLOAD PUSH1 0x20 DUP2 DUP4 SUB SUB DUP2 MSTORE SWAP1 PUSH1 0x40 MSTORE DUP1 MLOAD SWAP1 PUSH1 0x20 ADD KECCAK256 PUSH0 SHR PUSH2 0x93C SWAP2 SWAP1 PUSH2 0xFFA JUMP JUMPDEST PUSH2 0x946 SWAP2 SWAP1 PUSH2 0x102A JUMP JUMPDEST SWAP1 POP PUSH0 PUSH2 0x1F4 DUP3 GT SWAP1 POP PUSH0 PUSH0 SWAP1 POP DUP2 ISZERO PUSH2 0x9BD JUMPI PUSH1 0x2 CALLVALUE PUSH2 0x967 SWAP2 SWAP1 PUSH2 0xE83 JUMP JUMPDEST SWAP1 POP DUP1 PUSH1 0x1 PUSH0 CALLER PUSH20 0xFFFFFFFFFFFFFFFFFFFFFFFFFFFFFFFFFFFFFFFF AND PUSH20 0xFFFFFFFFFFFFFFFFFFFFFFFFFFFFFFFFFFFFFFFF AND DUP2 MSTORE PUSH1 0x20 ADD SWAP1 DUP2 MSTORE PUSH1 0x20 ADD PUSH0 KECCAK256 PUSH0 DUP3 DUP3 SLOAD PUSH2 0x9B5 SWAP2 SWAP1 PUSH2 0x102A JUMP JUMPDEST SWAP3 POP POP DUP2 SWAP1 SSTORE POP JUMPDEST CALLER PUSH20 0xFFFFFFFFFFFFFFFFFFFFFFFFFFFFFFFFFFFFFFFF AND PUSH31 0x1ECF1D0C4D22F324B3ECB9CDF0E5F772BC74AC104E6626F4B3845433D03105 CALLVALUE DUP6 PUSH1 0x40 MLOAD PUSH2 0xA04 SWAP3 SWAP2 SWAP1 PUSH2 0x105D JUMP JUMPDEST PUSH1 0x40 MLOAD DUP1 SWAP2 SUB SWAP1 LOG2 CALLER PUSH20 0xFFFFFFFFFFFFFFFFFFFFFFFFFFFFFFFFFFFFFFFF AND PUSH32 0xE0B9351D06CA94C4F37DD426C8A5096DF7DCE4D586F237C31F0F009A813C02F7 DUP4 DUP4 DUP7 PUSH1 0x40 MLOAD PUSH2 0xA56 SWAP4 SWAP3 SWAP2 SWAP1 PUSH2 0x1084 JUMP JUMPDEST PUSH1 0x40 MLOAD DUP1 SWAP2 SUB SWAP1 LOG2 POP POP POP PUSH2 0xA69 PUSH2 0xAB8 JUMP JUMPDEST JUMP JUMPDEST PUSH1 0x2 PUSH0 SLOAD SUB PUSH2 0xAAF JUMPI PUSH1 0x40 MLOAD PUSH32 0x8C379A000000000000000000000000000000000000000000000000000000000 DUP2 MSTORE PUSH1 0x4 ADD PUSH2 0xAA6 SWAP1 PUSH2 0x1103 JUMP JUMPDEST PUSH1 0x40 MLOAD DUP1 SWAP2 SUB SWAP1 REVERT JUMPDEST PUSH1 0x2 PUSH0 DUP2 SWAP1 SSTORE POP JUMP JUMPDEST PUSH1 0x1 PUSH0 DUP2 SWAP1 SSTORE POP JUMP JUMPDEST PUSH0 DUP2 SWAP1 POP SWAP2 SWAP1 POP JUMP JUMPDEST PUSH2 0xAD3 DUP2 PUSH2 0xAC1 JUMP JUMPDEST DUP3 MSTORE POP POP JUMP JUMPDEST PUSH0 PUSH1 0x20 DUP3 ADD SWAP1 POP PUSH2 0xAEC PUSH0 DUP4 ADD DUP5 PUSH2 0xACA JUMP JUMPDEST SWAP3 SWAP2 POP POP JUMP JUMPDEST PUSH0 DUP2 ISZERO ISZERO SWAP1 POP SWAP2 SWAP1 POP JUMP JUMPDEST PUSH2 0xB06 DUP2 PUSH2 0xAF2 JUMP JUMPDEST DUP3 MSTORE POP POP JUMP JUMPDEST PUSH0 PUSH1 0x20 DUP3 ADD SWAP1 POP PUSH2 0xB1F PUSH0 DUP4 ADD DUP5 PUSH2 0xAFD JUMP JUMPDEST SWAP3 SWAP2 POP POP JUMP JUMPDEST PUSH0 PUSH20 0xFFFFFFFFFFFFFFFFFFFFFFFFFFFFFFFFFFFFFFFF DUP3 AND SWAP1 POP SWAP2 SWAP1 POP JUMP JUMPDEST PUSH0 PUSH2 0xB4E DUP3 PUSH2 0xB25 JUMP JUMPDEST SWAP1 POP SWAP2 SWAP1 POP JUMP JUMPDEST PUSH2 0xB5E DUP2 PUSH2 0xB44 JUMP JUMPDEST DUP3 MSTORE POP POP JUMP JUMPDEST PUSH0 PUSH1 0x20 DUP3 ADD SWAP1 POP PUSH2 0xB77 PUSH0 DUP4 ADD DUP5 PUSH2 0xB55 JUMP JUMPDEST SWAP3 SWAP2 POP POP JUMP JUMPDEST PUSH0 PUSH0 REVERT JUMPDEST PUSH2 0xB8A DUP2 PUSH2 0xB44 JUMP JUMPDEST DUP2 EQ PUSH2 0xB94 JUMPI PUSH0 PUSH0 REVERT JUMPDEST POP JUMP JUMPDEST PUSH0 DUP2 CALLDATALOAD SWAP1 POP PUSH2 0xBA5 DUP2 PUSH2 0xB81 JUMP JUMPDEST SWAP3 SWAP2 POP POP JUMP JUMPDEST PUSH0 PUSH1 0x20 DUP3 DUP5 SUB SLT ISZERO PUSH2 0xBC0 JUMPI PUSH2 0xBBF PUSH2 0xB7D JUMP JUMPDEST JUMPDEST PUSH0 PUSH2 0xBCD DUP5 DUP3 DUP6 ADD PUSH2 0xB97 JUMP JUMPDEST SWAP2 POP POP SWAP3 SWAP2 POP POP JUMP JUMPDEST PUSH0 DUP3 DUP3 MSTORE PUSH1 0x20 DUP3 ADD SWAP1 POP SWAP3 SWAP2 POP POP JUMP JUMPDEST PUSH32 0x4E6F2077696E6E696E677320746F207769746864726177000000000000000000 PUSH0 DUP3 ADD MSTORE POP JUMP JUMPDEST PUSH0 PUSH2 0xC1A PUSH1 0x17 DUP4 PUSH2 0xBD6 JUMP JUMPDEST SWAP2 POP PUSH2 0xC25 DUP3 PUSH2 0xBE6 JUMP JUMPDEST PUSH1 0x20 DUP3 ADD SWAP1 POP SWAP2 SWAP1 POP JUMP JUMPDEST PUSH0 PUSH1 0x20 DUP3 ADD SWAP1 POP DUP2 DUP2 SUB PUSH0 DUP4 ADD MSTORE PUSH2 0xC47 DUP2 PUSH2 0xC0E JUMP JUMPDEST SWAP1 POP SWAP2 SWAP1 POP JUMP JUMPDEST PUSH32 0x4F6E6C79206F776E65722063616E2063616C6C20746869730000000000000000 PUSH0 DUP3 ADD MSTORE POP JUMP JUMPDEST PUSH0 PUSH2 0xC82 PUSH1 0x18 DUP4 PUSH2 0xBD6 JUMP JUMPDEST SWAP2 POP PUSH2 0xC8D DUP3 PUSH2 0xC4E JUMP JUMPDEST PUSH1 0x20 DUP3 ADD SWAP1 POP SWAP2 SWAP1 POP JUMP JUMPDEST PUSH0 PUSH1 0x20 DUP3 ADD SWAP1 POP DUP2 DUP2 SUB PUSH0 DUP4 ADD MSTORE PUSH2 0xCAF DUP2 PUSH2 0xC76 JUMP JUMPDEST SWAP1 POP SWAP2 SWAP1 POP JUMP JUMPDEST PUSH32 0x4E6F2062616C616E636520746F20776974686472617700000000000000000000 PUSH0 DUP3 ADD MSTORE POP JUMP JUMPDEST PUSH0 PUSH2 0xCEA PUSH1 0x16 DUP4 PUSH2 0xBD6 JUMP JUMPDEST SWAP2 POP PUSH2 0xCF5 DUP3 PUSH2 0xCB6 JUMP JUMPDEST PUSH1 0x20 DUP3 ADD SWAP1 POP SWAP2 SWAP1 POP JUMP JUMPDEST PUSH0 PUSH1 0x20 DUP3 ADD SWAP1 POP DUP2 DUP2 SUB PUSH0 DUP4 ADD MSTORE PUSH2 0xD17 DUP2 PUSH2 0xCDE JUMP JUMPDEST SWAP1 POP SWAP2 SWAP1 POP JUMP JUMPDEST PUSH32 0x4D7573742073656E64204D4154494320746F206465706F736974000000000000 PUSH0 DUP3 ADD MSTORE POP JUMP JUMPDEST PUSH0 PUSH2 0xD52 PUSH1 0x1A DUP4 PUSH2 0xBD6 JUMP JUMPDEST SWAP2 POP PUSH2 0xD5D DUP3 PUSH2 0xD1E JUMP JUMPDEST PUSH1 0x20 DUP3 ADD SWAP1 POP SWAP2 SWAP1 POP JUMP JUMPDEST PUSH0 PUSH1 0x20 DUP3 ADD SWAP1 POP DUP2 DUP2 SUB PUSH0 DUP4 ADD MSTORE PUSH2 0xD7F DUP2 PUSH2 0xD46 JUMP JUMPDEST SWAP1 POP SWAP2 SWAP1 POP JUMP JUMPDEST PUSH32 0x436F6E7472616374206973207061757365640000000000000000000000000000 PUSH0 DUP3 ADD MSTORE POP JUMP JUMPDEST PUSH0 PUSH2 0xDBA PUSH1 0x12 DUP4 PUSH2 0xBD6 JUMP JUMPDEST SWAP2 POP PUSH2 0xDC5 DUP3 PUSH2 0xD86 JUMP JUMPDEST PUSH1 0x20 DUP3 ADD SWAP1 POP SWAP2 SWAP1 POP JUMP JUMPDEST PUSH0 PUSH1 0x20 DUP3 ADD SWAP1 POP DUP2 DUP2 SUB PUSH0 DUP4 ADD MSTORE PUSH2 0xDE7 DUP2 PUSH2 0xDAE JUMP JUMPDEST SWAP1 POP SWAP2 SWAP1 POP JUMP JUMPDEST PUSH32 0x4E65656420746F2073656E64204D4154494320746F2062657400000000000000 PUSH0 DUP3 ADD MSTORE POP JUMP JUMPDEST PUSH0 PUSH2 0xE22 PUSH1 0x19 DUP4 PUSH2 0xBD6 JUMP JUMPDEST SWAP2 POP PUSH2 0xE2D DUP3 PUSH2 0xDEE JUMP JUMPDEST PUSH1 0x20 DUP3 ADD SWAP1 POP SWAP2 SWAP1 POP JUMP JUMPDEST PUSH0 PUSH1 0x20 DUP3 ADD SWAP1 POP DUP2 DUP2 SUB PUSH0 DUP4 ADD MSTORE PUSH2 0xE4F DUP2 PUSH2 0xE16 JUMP JUMPDEST SWAP1 POP SWAP2 SWAP1 POP JUMP JUMPDEST PUSH32 0x4E487B7100000000000000000000000000000000000000000000000000000000 PUSH0 MSTORE PUSH1 0x11 PUSH1 0x4 MSTORE PUSH1 0x24 PUSH0 REVERT JUMPDEST PUSH0 PUSH2 0xE8D DUP3 PUSH2 0xAC1 JUMP JUMPDEST SWAP2 POP PUSH2 0xE98 DUP4 PUSH2 0xAC1 JUMP JUMPDEST SWAP3 POP DUP3 DUP3 MUL PUSH2 0xEA6 DUP2 PUSH2 0xAC1 JUMP JUMPDEST SWAP2 POP DUP3 DUP3 DIV DUP5 EQ DUP4 ISZERO OR PUSH2 0xEBD JUMPI PUSH2 0xEBC PUSH2 0xE56 JUMP JUMPDEST JUMPDEST POP SWAP3 SWAP2 POP POP JUMP JUMPDEST PUSH32 0x42657420746F6F206C6172676520666F72207072697A6520706F6F6C00000000 PUSH0 DUP3 ADD MSTORE POP JUMP JUMPDEST PUSH0 PUSH2 0xEF8 PUSH1 0x1C DUP4 PUSH2 0xBD6 JUMP JUMPDEST SWAP2 POP PUSH2 0xF03 DUP3 PUSH2 0xEC4 JUMP JUMPDEST PUSH1 0x20 DUP3 ADD SWAP1 POP SWAP2 SWAP1 POP JUMP JUMPDEST PUSH0 PUSH1 0x20 DUP3 ADD SWAP1 POP DUP2 DUP2 SUB PUSH0 DUP4 ADD MSTORE PUSH2 0xF25 DUP2 PUSH2 0xEEC JUMP JUMPDEST SWAP1 POP SWAP2 SWAP1 POP JUMP JUMPDEST PUSH0 DUP2 SWAP1 POP SWAP2 SWAP1 POP JUMP JUMPDEST PUSH2 0xF46 PUSH2 0xF41 DUP3 PUSH2 0xAC1 JUMP JUMPDEST PUSH2 0xF2C JUMP JUMPDEST DUP3 MSTORE POP POP JUMP JUMPDEST PUSH0 DUP2 PUSH1 0x60 SHL SWAP1 POP SWAP2 SWAP1 POP JUMP JUMPDEST PUSH0 PUSH2 0xF62 DUP3 PUSH2 0xF4C JUMP JUMPDEST SWAP1 POP SWAP2 SWAP1 POP JUMP JUMPDEST PUSH0 PUSH2 0xF73 DUP3 PUSH2 0xF58 JUMP JUMPDEST SWAP1 POP SWAP2 SWAP1 POP JUMP JUMPDEST PUSH2 0xF8B PUSH2 0xF86 DUP3 PUSH2 0xB44 JUMP JUMPDEST PUSH2 0xF69 JUMP JUMPDEST DUP3 MSTORE POP POP JUMP JUMPDEST PUSH0 PUSH2 0xF9C DUP3 DUP7 PUSH2 0xF35 JUMP JUMPDEST PUSH1 0x20 DUP3 ADD SWAP2 POP PUSH2 0xFAC DUP3 DUP6 PUSH2 0xF35 JUMP JUMPDEST PUSH1 0x20 DUP3 ADD SWAP2 POP PUSH2 0xFBC DUP3 DUP5 PUSH2 0xF7A JUMP JUMPDEST PUSH1 0x14 DUP3 ADD SWAP2 POP DUP2 SWAP1 POP SWAP5 SWAP4 POP POP POP POP JUMP JUMPDEST PUSH32 0x4E487B7100000000000000000000000000000000000000000000000000000000 PUSH0 MSTORE PUSH1 0x12 PUSH1 0x4 MSTORE PUSH1 0x24 PUSH0 REVERT JUMPDEST PUSH0 PUSH2 0x1004 DUP3 PUSH2 0xAC1 JUMP JUMPDEST SWAP2 POP PUSH2 0x100F DUP4 PUSH2 0xAC1 JUMP JUMPDEST SWAP3 POP DUP3 PUSH2 0x101F JUMPI PUSH2 0x101E PUSH2 0xFCD JUMP JUMPDEST JUMPDEST DUP3 DUP3 MOD SWAP1 POP SWAP3 SWAP2 POP POP JUMP JUMPDEST PUSH0 PUSH2 0x1034 DUP3 PUSH2 0xAC1 JUMP JUMPDEST SWAP2 POP PUSH2 0x103F DUP4 PUSH2 0xAC1 JUMP JUMPDEST SWAP3 POP DUP3 DUP3 ADD SWAP1 POP DUP1 DUP3 GT ISZERO PUSH2 0x1057 JUMPI PUSH2 0x1056 PUSH2 0xE56 JUMP JUMPDEST JUMPDEST SWAP3 SWAP2 POP POP JUMP JUMPDEST PUSH0 PUSH1 0x40 DUP3 ADD SWAP1 POP PUSH2 0x1070 PUSH0 DUP4 ADD DUP6 PUSH2 0xACA JUMP JUMPDEST PUSH2 0x107D PUSH1 0x20 DUP4 ADD DUP5 PUSH2 0xACA JUMP JUMPDEST SWAP4 SWAP3 POP POP POP JUMP JUMPDEST PUSH0 PUSH1 0x60 DUP3 ADD SWAP1 POP PUSH2 0x1097 PUSH0 DUP4 ADD DUP7 PUSH2 0xAFD JUMP JUMPDEST PUSH2 0x10A4 PUSH1 0x20 DUP4 ADD DUP6 PUSH2 0xACA JUMP JUMPDEST PUSH2 0x10B1 PUSH1 0x40 DUP4 ADD DUP5 PUSH2 0xACA JUMP JUMPDEST SWAP5 SWAP4 POP POP POP POP JUMP JUMPDEST PUSH32 0x5265656E7472616E637947756172643A207265656E7472616E742063616C6C00 PUSH0 DUP3 ADD MSTORE POP JUMP JUMPDEST PUSH0 PUSH2 0x10ED PUSH1 0x1F DUP4 PUSH2 0xBD6 JUMP JUMPDEST SWAP2 POP PUSH2 0x10F8 DUP3 PUSH2 0x10B9 JUMP JUMPDEST PUSH1 0x20 DUP3 ADD SWAP1 POP SWAP2 SWAP1 POP JUMP JUMPDEST PUSH0 PUSH1 0x20 DUP3 ADD SWAP1 POP DUP2 DUP2 SUB PUSH0 DUP4 ADD MSTORE PUSH2 0x111A DUP2 PUSH2 0x10E1 JUMP JUMPDEST SWAP1 POP SWAP2 SWAP1 POP JUMP INVALID LOG2 PUSH5 0x6970667358 0x22 SLT KECCAK256 DUP15 GAS 0xC7 0x2E SWAP10 TIMESTAMP 0xAF LOG0 0x27 CODECOPY 0xD9 AND CHAINID 0xFC TSTORE CALLVALUE BLOCKHASH PUSH3 0xCA9B8F 0xFC 0xA8 0x2E 0xAA SLOAD 0x29 PUSH31 0x151B36BE64736F6C634300081E003300000000000000000000000000000000 "
		},
		"gasEstimates": {
			"creation": {
				"codeDepositCost": "887800",
				"executionCost": "71590",
				"totalCost": "959390"
			},
			"external": {
				"deposit()": "3923",
				"getBalance()": "335",
				"owner()": "2508",
				"pauseContract()": "29970",
				"paused()": "2584",
				"placeBet()": "infinite",
				"resumeContract()": "29946",
				"winnings(address)": "2868",
				"withdraw()": "infinite",
				"withdrawAll()": "infinite"
			}
		},
		"methodIdentifiers": {
			"deposit()": "d0e30db0",
			"getBalance()": "12065fe0",
			"owner()": "8da5cb5b",
			"pauseContract()": "439766ce",
			"paused()": "5c975abb",
			"placeBet()": "f90f4560",
			"resumeContract()": "c4bc5da5",
			"winnings(address)": "ea3a1499",
			"withdraw()": "3ccfd60b",
			"withdrawAll()": "853828b6"
		}
	},
	"abi": [
		{
			"inputs": [],
			"stateMutability": "payable",
			"type": "constructor"
		},
		{
			"anonymous": false,
			"inputs": [
				{
					"indexed": true,
					"internalType": "address",
					"name": "player",
					"type": "address"
				},
				{
					"indexed": false,
					"internalType": "uint256",
					"name": "amount",
					"type": "uint256"
				},
				{
					"indexed": false,
					"internalType": "uint256",
					"name": "number",
					"type": "uint256"
				}
			],
			"name": "BetPlaced",
			"type": "event"
		},
		{
			"anonymous": false,
			"inputs": [
				{
					"indexed": true,
					"internalType": "address",
					"name": "owner",
					"type": "address"
				}
			],
			"name": "ContractPaused",
			"type": "event"
		},
		{
			"anonymous": false,
			"inputs": [
				{
					"indexed": true,
					"internalType": "address",
					"name": "owner",
					"type": "address"
				}
			],
			"name": "ContractResumed",
			"type": "event"
		},
		{
			"anonymous": false,
			"inputs": [
				{
					"indexed": true,
					"internalType": "address",
					"name": "sender",
					"type": "address"
				},
				{
					"indexed": false,
					"internalType": "uint256",
					"name": "amount",
					"type": "uint256"
				}
			],
			"name": "Deposit",
			"type": "event"
		},
		{
			"anonymous": false,
			"inputs": [
				{
					"indexed": true,
					"internalType": "address",
					"name": "player",
					"type": "address"
				},
				{
					"indexed": false,
					"internalType": "bool",
					"name": "win",
					"type": "bool"
				},
				{
					"indexed": false,
					"internalType": "uint256",
					"name": "reward",
					"type": "uint256"
				},
				{
					"indexed": false,
					"internalType": "uint256",
					"name": "number",
					"type": "uint256"
				}
			],
			"name": "GameResult",
			"type": "event"
		},
		{
			"anonymous": false,
			"inputs": [
				{
					"indexed": true,
					"internalType": "address",
					"name": "owner",
					"type": "address"
				},
				{
					"indexed": false,
					"internalType": "uint256",
					"name": "amount",
					"type": "uint256"
				}
			],
			"name": "WithdrawAll",
			"type": "event"
		},
		{
			"inputs": [],
			"name": "deposit",
			"outputs": [],
			"stateMutability": "payable",
			"type": "function"
		},
		{
			"inputs": [],
			"name": "getBalance",
			"outputs": [
				{
					"internalType": "uint256",
					"name": "",
					"type": "uint256"
				}
			],
			"stateMutability": "view",
			"type": "function"
		},
		{
			"inputs": [],
			"name": "owner",
			"outputs": [
				{
					"internalType": "address",
					"name": "",
					"type": "address"
				}
			],
			"stateMutability": "view",
			"type": "function"
		},
		{
			"inputs": [],
			"name": "pauseContract",
			"outputs": [],
			"stateMutability": "nonpayable",
			"type": "function"
		},
		{
			"inputs": [],
			"name": "paused",
			"outputs": [
				{
					"internalType": "bool",
					"name": "",
					"type": "bool"
				}
			],
			"stateMutability": "view",
			"type": "function"
		},
		{
			"inputs": [],
			"name": "placeBet",
			"outputs": [],
			"stateMutability": "payable",
			"type": "function"
		},
		{
			"inputs": [],
			"name": "resumeContract",
			"outputs": [],
			"stateMutability": "nonpayable",
			"type": "function"
		},
		{
			"inputs": [
				{
					"internalType": "address",
					"name": "",
					"type": "address"
				}
			],
			"name": "winnings",
			"outputs": [
				{
					"internalType": "uint256",
					"name": "",
					"type": "uint256"
				}
			],
			"stateMutability": "view",
			"type": "function"
		},
		{
			"inputs": [],
			"name": "withdraw",
			"outputs": [],
			"stateMutability": "nonpayable",
			"type": "function"
		},
		{
			"inputs": [],
			"name": "withdrawAll",
			"outputs": [],
			"stateMutability": "nonpayable",
			"type": "function"
		}
	]
}